:1000000010C055C029C028C027C026C0D4C0B0C069
:1000100023C022C021C020C01FC01EC01DC01CC0E4
:100020001BC011241FBECFE5D1E0DEBFCDBF10E065
:10003000A0E6B0E0E2EEF6E002C005900D92AE3729
:10004000B107D9F710E0AEE7B0E001C01D92A63AC3
:10005000B107E1F759D243C3D3CF1ABA1BBA099AF1
:10006000029A3798009A019A789408951BBA1ABA9E
:1000700018BA17BA1EBC85B7877E806185BF85B761
:10008000806285BF8BB780648BBF88958BB78F7B71
:100090008BBF85B78F7D85BF80917F008F5F843058
:1000A0001CF480937F00089510927F0008951F92A2
:1000B0000F920FB60F9211248F9383E08ABB81E0D9
:1000C0008BBB8BB78F7B8BBF8F910F900FBE0F9029
:1000D0001F901895282F22952F7041E050E0BA010B
:1000E00002C0660F771F2A95E2F78F70082E01C0B5
:1000F000440F0A94EAF7462B4ABB6BBB0895CF9393
:100100001EBCC09165002BC0E0918100F0E0E45975
:10011000FF4F8081DFDF809181008F5F80938100BE
:10012000833180F01092810090916500809164008D
:10013000890F80936400882311F08A3019F4919517
:100140009093650080E007C0EFECF7E03197F1F79E
:1001500000C000008F5F909164008917A8F3809120
:1001600065008C1789F2CF9108951BBA1ABA0895C9
:100170001F920F920FB60F9211242F933F934F931C
:100180005F936F937F938F939F93AF93BF93EF93FF
:10019000FF93EBDFFF91EF91BF91AF919F918F9113
:1001A0007F916F915F914F913F912F910F900FBE73
:1001B0000F901F9018951F920F920FB60F92112457
:1001C0002F933F934F935F936F937F938F939F935F
:1001D000AF93BF93EF93FF931DBC1CBC8091800035
:1001E00090E0FC01EE0FFF1FEE57FF4F20813181A1
:1001F000232B89F0FC01E459FF4F80816BDFE091F4
:100200008000F0E0EE0FFF1FEE57FF4F80819181DD
:1002100099BD88BD01C0A9DF809180008F5F8231C8
:1002200018F48093800002C010928000FF91EF913B
:10023000BF91AF919F918F917F916F915F914F91FE
:100240003F912F910F900FBE0F901F9018958CB17A
:1002500086608CB980EE9EE29BBD8ABD8EB58160C2
:100260008EBD089524E630E0E82FF0E0EE0FFF1F8A
:10027000EE57FF4F318320832C593F4F8FE99FE08A
:100280000197F1F700C000002C379EE2390791F783
:100290008CE79EE20895E82FF0E0EE0FFF1FEE5787
:1002A000FF4F808191810AC0918380838456910998
:1002B000AFEDBEE21197F1F700C000008436910562
:1002C00098F70895CF93DF93C2DF80E0CBDF81E022
:1002D000809381008CE79EE21BC0E22FF0E0DF01FB
:1002E000AA0FBB1FA058BF4F1D921C92EE0FFF1FFD
:1002F000EE57FF4F918380833FE748E351E0315051
:1003000040405040E1F700C000002F5F2093810083
:1003100020918100233108F3CCE7DEE2D093830003
:10032000C093820080E0B7DF8FE798E321E081503F
:1003300090402040E1F700C00000D0938300C093BC
:1003400082003FE745EB51E0315040405040E1F73B
:1003500000C00000D0938500C0938400D093930028
:10036000C0939200D0939500C0939400D093A500C1
:10037000C093A4008FE795EB21E08150904020408E
:10038000E1F700C00000D0938700C0938600D093AF
:100390009100C0939000D0939700C0939600D093A3
:1003A000A300C093A2003FEF46E751E03150404028
:1003B0005040E1F700C00000D0938900C09388004E
:1003C000D0938F00C0938E00D0939900C093980073
:1003D000D093A100C093A000D0938B00C0938A005B
:1003E000D0938D00C0938C00D0939B00C0939A0053
:1003F000D0939D00C0939C00D0939F00C0939E001B
:100400008FEF94E32CE0815090402040E1F700C052
:10041000000009C08081918101978193919330E020
:10042000E83AF307B9F7809182009091830085360E
:10043000910518F0E2E8F0E0EDCFDF91CF9108955B
:1004400080E0E82FF0E0EE0FFF1FEE57FF4F118224
:1004500010828F5F8331A8F38093810008950F93FA
:100460001F93CF93DF93ECDF10928100C2E1D0E0C5
:1004700004E610E03FC0EBDE0BD1BE0155D09091F9
:100480007E008917C9F3E82FEE0FFF0BEE57FF4FE1
:1004900011830083DF0118C02C593F4F11963C9304
:1004A0002E93EE0FFF0BEE57FF4F20813181253643
:1004B000310520F02456310931832083EFE9FFE034
:1004C0003197F1F700C000002D913C911197E09118
:1004D0007E002831FEE23F07F8F2EE0FFF0BEE57E9
:1004E000FF4F1182108280937E00809181008F5F88
:1004F0008093810080918100843108F4BCCFDF912A
:10050000CF911F910F910895A8DDA1DEE0917F00AA
:10051000EE0FFF0BEA59FF4F0190F081E02D099596
:10052000B29BF4CFA3DDF2CF97FB072E16F4009415
:1005300006D077FD08D026D007FC05D03EF4909574
:1005400081959F4F0895709561957F4F0895052E71
:1005500097FB16F4009406D057FD0CD027D007FC6B
:1005600009D07EF490958095709561957F4F8F4F5F
:100570009F4F089550954095309521953F4F4F4F8F
:100580005F4F0895AA1BBB1B51E107C0AA1FBB1FE9
:10059000A617B70710F0A61BB70B881F991F5A950F
:1005A000A9F780959095BC01CD010895A1E21A2E7E
:1005B000AA1BBB1BFD010DC0AA1FBB1FEE1FFF1F07
:1005C000A217B307E407F50720F0A21BB30BE40B57
:1005D000F50B661F771F881F991F1A9469F760959E
:1005E0007095809590959B01AC01BD01CF01089558
:1005F0008F929F92AF92BF92CF92DF92EF92FF9233
:10060000CF93DF93EC01688179818A819B816115A9
:1006100071058105910521F464E279ED8BE597E0A0
:100620002DE133EF41E050E092DF49015A0127EA22
:1006300031E440E050E03AD06B017C012CEE34EF25
:100640004FEF5FEFC501B40131D0AB01BC01C40E67
:10065000D51EE61EF71EF7FE06C081E0C81AD108B7
:10066000E10880E8F80AC882D982EA82FB82E8942D
:10067000D7F8EE24FF24C601DF91CF91FF90EF90D1
:10068000DF90CF90BF90AF909F908F900895B0CFA4
:1006900080E690E0ADCFA0E0B0E080936000909362
:1006A0006100A0936200B09363000895FF27EE27D6
:1006B000BB27AA2760FF04C0A20FB31FE41FF51FCA
:1006C000220F331F441F551F969587957795679581
:1006D00089F70097760771F7CF01BD010895F89467
:0206E000FFCF4A
:1006E2000100000009FF7F0062012F0201040302E2
:0E06F2001012131420212324303132344041E1
:00000001FF
